{
  "_format": "hh-sol-artifact-1",
  "contractName": "Secret",
  "sourceName": "contracts/secret.sol",
  "abi": [
    {
      "inputs": [],
      "name": "getSecret",
      "outputs": [
        {
          "internalType": "uint256",
          "name": "",
          "type": "uint256"
        }
      ],
      "stateMutability": "view",
      "type": "function"
    },
    {
      "inputs": [
        {
          "internalType": "uint256",
          "name": "secretValue",
          "type": "uint256"
        }
      ],
      "name": "setSecret",
      "outputs": [],
      "stateMutability": "nonpayable",
      "type": "function"
    }
  ],
  "bytecode": "0x608060405234801561001057600080fd5b506101c0806100206000396000f3fe608060405234801561001057600080fd5b50600436106100365760003560e01c80633b4dbf8b1461003b5780635b9fdc3014610057575b600080fd5b61005560048036038101906100509190610116565b610075565b005b61005f6100bb565b60405161006c919061014e565b60405180910390f35b806000803373ffffffffffffffffffffffffffffffffffffffff1673ffffffffffffffffffffffffffffffffffffffff1681526020019081526020016000208190555050565b60008060003373ffffffffffffffffffffffffffffffffffffffff1673ffffffffffffffffffffffffffffffffffffffff16815260200190815260200160002054905090565b60008135905061011081610173565b92915050565b60006020828403121561012857600080fd5b600061013684828501610101565b91505092915050565b61014881610169565b82525050565b6000602082019050610163600083018461013f565b92915050565b6000819050919050565b61017c81610169565b811461018757600080fd5b5056fea26469706673582212202cdad19bd54ecabe840dac313465c6d090a3c80772e049f40f0faea4f367486f64736f6c63430008000033",
  "linkReferences": {},
  "deployedLinkReferences": {}
}